:1000000039C000003FC000003DC000003BC0000000
:1000100039C0000037C0000035C0000033C0000008
:1000200031C000002FC000002DC000002BC0000018
:1000300029C0000027C0000025C0000023C0000028
:1000400021C000001FC000001DC000001BC0000038
:1000500019C0000017C0000015C0000013C0000048
:1000600011C000000FC000000DC000000BC0000058
:1000700009C0000011241FBECFEFD2E0DEBFCDBF0C
:100080004FD05CC0BDCF20E030E080E069E0962F2B
:100090009A95F1F720FD03C044E058E002C042E029
:1000A00051E093B155B9942341E009F440E0880F41
:1000B000842B2F5F3F4F2830310549F70895209A50
:1000C000239A2B98289821982298299A2A9A089559
:1000D00084B7877F84BF0FB6F894A895809160009D
:1000E000886180936000109260000FBE90E080E80D
:1000F0000FB6F89480936100909361000FBE88E082
:1001000090E09093CD008093CC0086E08093CA006D
:100110001092C80088E18093C900539A5A9ACFCFB1
:10012000D7DF7894B0DF9091C80095FFFBCF909116
:10013000C80095FFFCCF8093CE00F4CFF894FFCF9A
:00000001FF
